{
  "_format": "hh-sol-artifact-1",
  "contractName": "HopeChain",
  "sourceName": "contracts/HopeChain.sol",
  "abi": [
    {
      "inputs": [],
      "stateMutability": "nonpayable",
      "type": "constructor"
    },
    {
      "anonymous": false,
      "inputs": [
        {
          "indexed": false,
          "internalType": "uint256",
          "name": "campaignId",
          "type": "uint256"
        },
        {
          "indexed": false,
          "internalType": "uint256",
          "name": "collected",
          "type": "uint256"
        },
        {
          "indexed": false,
          "internalType": "bool",
          "name": "goalReached",
          "type": "bool"
        }
      ],
      "name": "CampaignClosed",
      "type": "event"
    },
    {
      "anonymous": false,
      "inputs": [
        {
          "indexed": false,
          "internalType": "uint256",
          "name": "campaignId",
          "type": "uint256"
        },
        {
          "indexed": false,
          "internalType": "string",
          "name": "name",
          "type": "string"
        },
        {
          "indexed": false,
          "internalType": "uint256",
          "name": "goal",
          "type": "uint256"
        },
        {
          "indexed": false,
          "internalType": "address",
          "name": "campaignOwner",
          "type": "address"
        }
      ],
      "name": "CampaignCreated",
      "type": "event"
    },
    {
      "anonymous": false,
      "inputs": [
        {
          "indexed": false,
          "internalType": "uint256",
          "name": "campaignId",
          "type": "uint256"
        },
        {
          "indexed": false,
          "internalType": "address",
          "name": "donor",
          "type": "address"
        },
        {
          "indexed": false,
          "internalType": "uint256",
          "name": "amount",
          "type": "uint256"
        },
        {
          "indexed": false,
          "internalType": "uint256",
          "name": "timestamp",
          "type": "uint256"
        }
      ],
      "name": "DonationReceived",
      "type": "event"
    },
    {
      "inputs": [
        {
          "internalType": "uint256",
          "name": "",
          "type": "uint256"
        }
      ],
      "name": "campaigns",
      "outputs": [
        {
          "internalType": "string",
          "name": "name",
          "type": "string"
        },
        {
          "internalType": "string",
          "name": "description",
          "type": "string"
        },
        {
          "internalType": "address payable",
          "name": "owner",
          "type": "address"
        },
        {
          "internalType": "uint256",
          "name": "goal",
          "type": "uint256"
        },
        {
          "internalType": "uint256",
          "name": "collected",
          "type": "uint256"
        },
        {
          "internalType": "bool",
          "name": "isActive",
          "type": "bool"
        }
      ],
      "stateMutability": "view",
      "type": "function"
    },
    {
      "inputs": [
        {
          "internalType": "uint256",
          "name": "campaignId",
          "type": "uint256"
        }
      ],
      "name": "closeCampaign",
      "outputs": [],
      "stateMutability": "nonpayable",
      "type": "function"
    },
    {
      "inputs": [
        {
          "internalType": "string",
          "name": "_name",
          "type": "string"
        },
        {
          "internalType": "string",
          "name": "_description",
          "type": "string"
        },
        {
          "internalType": "uint256",
          "name": "_goal",
          "type": "uint256"
        }
      ],
      "name": "createCampaign",
      "outputs": [],
      "stateMutability": "nonpayable",
      "type": "function"
    },
    {
      "inputs": [
        {
          "internalType": "uint256",
          "name": "campaignId",
          "type": "uint256"
        }
      ],
      "name": "donate",
      "outputs": [],
      "stateMutability": "payable",
      "type": "function"
    },
    {
      "inputs": [
        {
          "internalType": "uint256",
          "name": "",
          "type": "uint256"
        },
        {
          "internalType": "uint256",
          "name": "",
          "type": "uint256"
        }
      ],
      "name": "donations",
      "outputs": [
        {
          "internalType": "uint256",
          "name": "campaignId",
          "type": "uint256"
        },
        {
          "internalType": "address",
          "name": "donor",
          "type": "address"
        },
        {
          "internalType": "uint256",
          "name": "amount",
          "type": "uint256"
        },
        {
          "internalType": "uint256",
          "name": "timestamp",
          "type": "uint256"
        }
      ],
      "stateMutability": "view",
      "type": "function"
    },
    {
      "inputs": [],
      "name": "getActiveCampaigns",
      "outputs": [
        {
          "internalType": "uint256[]",
          "name": "activeCampaignIds",
          "type": "uint256[]"
        }
      ],
      "stateMutability": "view",
      "type": "function"
    },
    {
      "inputs": [
        {
          "internalType": "uint256",
          "name": "campaignId",
          "type": "uint256"
        }
      ],
      "name": "getCampaignDetails",
      "outputs": [
        {
          "internalType": "string",
          "name": "name",
          "type": "string"
        },
        {
          "internalType": "string",
          "name": "description",
          "type": "string"
        },
        {
          "internalType": "address",
          "name": "campaignOwner",
          "type": "address"
        },
        {
          "internalType": "uint256",
          "name": "goal",
          "type": "uint256"
        },
        {
          "internalType": "uint256",
          "name": "collected",
          "type": "uint256"
        },
        {
          "internalType": "bool",
          "name": "isActive",
          "type": "bool"
        }
      ],
      "stateMutability": "view",
      "type": "function"
    },
    {
      "inputs": [
        {
          "internalType": "uint256",
          "name": "campaignId",
          "type": "uint256"
        }
      ],
      "name": "getDonations",
      "outputs": [
        {
          "components": [
            {
              "internalType": "uint256",
              "name": "campaignId",
              "type": "uint256"
            },
            {
              "internalType": "address",
              "name": "donor",
              "type": "address"
            },
            {
              "internalType": "uint256",
              "name": "amount",
              "type": "uint256"
            },
            {
              "internalType": "uint256",
              "name": "timestamp",
              "type": "uint256"
            }
          ],
          "internalType": "struct HopeChain.Donation[]",
          "name": "",
          "type": "tuple[]"
        }
      ],
      "stateMutability": "view",
      "type": "function"
    },
    {
      "inputs": [],
      "name": "owner",
      "outputs": [
        {
          "internalType": "address",
          "name": "",
          "type": "address"
        }
      ],
      "stateMutability": "view",
      "type": "function"
    },
    {
      "inputs": [],
      "name": "totalCampaigns",
      "outputs": [
        {
          "internalType": "uint256",
          "name": "",
          "type": "uint256"
        }
      ],
      "stateMutability": "view",
      "type": "function"
    }
  ],
  "bytecode": "0x6080604052348015600f57600080fd5b50336000806101000a81548173ffffffffffffffffffffffffffffffffffffffff021916908373ffffffffffffffffffffffffffffffffffffffff160217905550611d1a8061005f6000396000f3fe6080604052600436106100915760003560e01c8063b0e1c1e111610059578063b0e1c1e1146101ab578063c362b156146101d4578063d993de62146101ff578063f14faf6f14610241578063ffa56a571461025d57610091565b806302932f5614610096578063141961bc146100c157806348f7b12e14610103578063596d9ce2146101435780638da5cb5b14610180575b600080fd5b3480156100a257600080fd5b506100ab610286565b6040516100b89190610eed565b60405180910390f35b3480156100cd57600080fd5b506100e860048036038101906100e39190610f48565b61028c565b6040516100fa96959493929190611061565b60405180910390f35b34801561010f57600080fd5b5061012a600480360381019061012591906110d0565b610405565b60405161013a9493929190611131565b60405180910390f35b34801561014f57600080fd5b5061016a60048036038101906101659190610f48565b610472565b6040516101779190611298565b60405180910390f35b34801561018c57600080fd5b5061019561059e565b6040516101a291906112ba565b60405180910390f35b3480156101b757600080fd5b506101d260048036038101906101cd9190610f48565b6105c2565b005b3480156101e057600080fd5b506101e96107fd565b6040516101f69190611384565b60405180910390f35b34801561020b57600080fd5b5061022660048036038101906102219190610f48565b610919565b604051610238969594939291906113a6565b60405180910390f35b61025b60048036038101906102569190610f48565b610af6565b005b34801561026957600080fd5b50610284600480360381019061027f919061154a565b610d2f565b005b60035481565b60016020528060005260406000206000915090508060000180546102af90611604565b80601f01602080910402602001604051908101604052809291908181526020018280546102db90611604565b80156103285780601f106102fd57610100808354040283529160200191610328565b820191906000526020600020905b81548152906001019060200180831161030b57829003601f168201915b50505050509080600101805461033d90611604565b80601f016020809104026020016040519081016040528092919081815260200182805461036990611604565b80156103b65780601f1061038b576101008083540402835291602001916103b6565b820191906000526020600020905b81548152906001019060200180831161039957829003601f168201915b5050505050908060020160009054906101000a900473ffffffffffffffffffffffffffffffffffffffff16908060030154908060040154908060050160009054906101000a900460ff16905086565b6002602052816000526040600020818154811061042157600080fd5b9060005260206000209060040201600091509150508060000154908060010160009054906101000a900473ffffffffffffffffffffffffffffffffffffffff16908060020154908060030154905084565b60608160035481106104b9576040517f08c379a00000000000000000000000000000000000000000000000000000000081526004016104b090611681565b60405180910390fd5b60026000848152602001908152602001600020805480602002602001604051908101604052809291908181526020016000905b828210156105925783829060005260206000209060040201604051806080016040529081600082015481526020016001820160009054906101000a900473ffffffffffffffffffffffffffffffffffffffff1673ffffffffffffffffffffffffffffffffffffffff1673ffffffffffffffffffffffffffffffffffffffff16815260200160028201548152602001600382015481525050815260200190600101906104ec565b50505050915050919050565b60008054906101000a900473ffffffffffffffffffffffffffffffffffffffff1681565b806001600082815260200190815260200160002060020160009054906101000a900473ffffffffffffffffffffffffffffffffffffffff1673ffffffffffffffffffffffffffffffffffffffff163373ffffffffffffffffffffffffffffffffffffffff1614610667576040517f08c379a000000000000000000000000000000000000000000000000000000000815260040161065e90611713565b60405180910390fd5b8160035481106106ac576040517f08c379a00000000000000000000000000000000000000000000000000000000081526004016106a390611681565b60405180910390fd5b60006001600085815260200190815260200160002090508060050160009054906101000a900460ff16610714576040517f08c379a000000000000000000000000000000000000000000000000000000000815260040161070b9061177f565b60405180910390fd5b60008160050160006101000a81548160ff0219169083151502179055506000816003015482600401541015905080156107b7578160020160009054906101000a900473ffffffffffffffffffffffffffffffffffffffff1673ffffffffffffffffffffffffffffffffffffffff166108fc83600401549081150290604051600060405180830381858888f193505050501580156107b5573d6000803e3d6000fd5b505b7f8d989269cab8e9a0f4fae84364ca73899d1d5428216823f127d243c904563d16858360040154836040516107ee9392919061179f565b60405180910390a15050505050565b60606000805b600354811015610852576001600082815260200190815260200160002060050160009054906101000a900460ff161561084557818061084190611805565b9250505b8080600101915050610803565b508067ffffffffffffffff81111561086d5761086c61141f565b5b60405190808252806020026020018201604052801561089b5781602001602082028036833780820191505090505b5091506000905060005b600354811015610914576001600082815260200190815260200160002060050160009054906101000a900460ff161561090757808383815181106108ec576108eb61184d565b5b602002602001018181525050818061090390611805565b9250505b80806001019150506108a5565b505090565b606080600080600080866003548110610967576040517f08c379a000000000000000000000000000000000000000000000000000000000815260040161095e90611681565b60405180910390fd5b6000600160008a8152602001908152602001600020905080600001816001018260020160009054906101000a900473ffffffffffffffffffffffffffffffffffffffff16836003015484600401548560050160009054906101000a900460ff168580546109d390611604565b80601f01602080910402602001604051908101604052809291908181526020018280546109ff90611604565b8015610a4c5780601f10610a2157610100808354040283529160200191610a4c565b820191906000526020600020905b815481529060010190602001808311610a2f57829003601f168201915b50505050509550848054610a5f90611604565b80601f0160208091040260200160405190810160405280929190818152602001828054610a8b90611604565b8015610ad85780601f10610aad57610100808354040283529160200191610ad8565b820191906000526020600020905b815481529060010190602001808311610abb57829003601f168201915b50505050509450975097509750975097509750505091939550919395565b806003548110610b3b576040517f08c379a0000000000000000000000000000000000000000000000000000000008152600401610b3290611681565b60405180910390fd5b6001600083815260200190815260200160002060050160009054906101000a900460ff16610b9e576040517f08c379a0000000000000000000000000000000000000000000000000000000008152600401610b95906118c8565b60405180910390fd5b60003411610be1576040517f08c379a0000000000000000000000000000000000000000000000000000000008152600401610bd89061195a565b60405180910390fd5b600060016000848152602001908152602001600020905034816004016000828254610c0c919061197a565b925050819055506002600084815260200190815260200160002060405180608001604052808581526020013373ffffffffffffffffffffffffffffffffffffffff1681526020013481526020014281525090806001815401808255809150506001900390600052602060002090600402016000909190919091506000820151816000015560208201518160010160006101000a81548173ffffffffffffffffffffffffffffffffffffffff021916908373ffffffffffffffffffffffffffffffffffffffff160217905550604082015181600201556060820151816003015550507f3dbea1b4ce5f95137fdcac9b1d685825c3d70ace830df1ca5a181d3887add41083333442604051610d229493929190611131565b60405180910390a1505050565b60008111610d72576040517f08c379a0000000000000000000000000000000000000000000000000000000008152600401610d69906119fa565b60405180910390fd5b600060036000815480929190610d8790611805565b9190505590506040518060c001604052808581526020018481526020013373ffffffffffffffffffffffffffffffffffffffff1681526020018381526020016000815260200160011515815250600160008381526020019081526020016000206000820151816000019081610dfc9190611bc6565b506020820151816001019081610e129190611bc6565b5060408201518160020160006101000a81548173ffffffffffffffffffffffffffffffffffffffff021916908373ffffffffffffffffffffffffffffffffffffffff160217905550606082015181600301556080820151816004015560a08201518160050160006101000a81548160ff0219169083151502179055509050507f6fc7a1de3ccfc251acab8f2f41819123cd49f5da653ad8e7d5ca2f5e8ff7657281858433604051610ec69493929190611c98565b60405180910390a150505050565b6000819050919050565b610ee781610ed4565b82525050565b6000602082019050610f026000830184610ede565b92915050565b6000604051905090565b600080fd5b600080fd5b610f2581610ed4565b8114610f3057600080fd5b50565b600081359050610f4281610f1c565b92915050565b600060208284031215610f5e57610f5d610f12565b5b6000610f6c84828501610f33565b91505092915050565b600081519050919050565b600082825260208201905092915050565b60005b83811015610faf578082015181840152602081019050610f94565b60008484015250505050565b6000601f19601f8301169050919050565b6000610fd782610f75565b610fe18185610f80565b9350610ff1818560208601610f91565b610ffa81610fbb565b840191505092915050565b600073ffffffffffffffffffffffffffffffffffffffff82169050919050565b600061103082611005565b9050919050565b61104081611025565b82525050565b60008115159050919050565b61105b81611046565b82525050565b600060c082019050818103600083015261107b8189610fcc565b9050818103602083015261108f8188610fcc565b905061109e6040830187611037565b6110ab6060830186610ede565b6110b86080830185610ede565b6110c560a0830184611052565b979650505050505050565b600080604083850312156110e7576110e6610f12565b5b60006110f585828601610f33565b925050602061110685828601610f33565b9150509250929050565b600061111b82611005565b9050919050565b61112b81611110565b82525050565b60006080820190506111466000830187610ede565b6111536020830186611122565b6111606040830185610ede565b61116d6060830184610ede565b95945050505050565b600081519050919050565b600082825260208201905092915050565b6000819050602082019050919050565b6111ab81610ed4565b82525050565b6111ba81611110565b82525050565b6080820160008201516111d660008501826111a2565b5060208201516111e960208501826111b1565b5060408201516111fc60408501826111a2565b50606082015161120f60608501826111a2565b50505050565b600061122183836111c0565b60808301905092915050565b6000602082019050919050565b600061124582611176565b61124f8185611181565b935061125a83611192565b8060005b8381101561128b5781516112728882611215565b975061127d8361122d565b92505060018101905061125e565b5085935050505092915050565b600060208201905081810360008301526112b2818461123a565b905092915050565b60006020820190506112cf6000830184611122565b92915050565b600081519050919050565b600082825260208201905092915050565b6000819050602082019050919050565b600061130d83836111a2565b60208301905092915050565b6000602082019050919050565b6000611331826112d5565b61133b81856112e0565b9350611346836112f1565b8060005b8381101561137757815161135e8882611301565b975061136983611319565b92505060018101905061134a565b5085935050505092915050565b6000602082019050818103600083015261139e8184611326565b905092915050565b600060c08201905081810360008301526113c08189610fcc565b905081810360208301526113d48188610fcc565b90506113e36040830187611122565b6113f06060830186610ede565b6113fd6080830185610ede565b61140a60a0830184611052565b979650505050505050565b600080fd5b600080fd5b7f4e487b7100000000000000000000000000000000000000000000000000000000600052604160045260246000fd5b61145782610fbb565b810181811067ffffffffffffffff821117156114765761147561141f565b5b80604052505050565b6000611489610f08565b9050611495828261144e565b919050565b600067ffffffffffffffff8211156114b5576114b461141f565b5b6114be82610fbb565b9050602081019050919050565b82818337600083830152505050565b60006114ed6114e88461149a565b61147f565b9050828152602081018484840111156115095761150861141a565b5b6115148482856114cb565b509392505050565b600082601f83011261153157611530611415565b5b81356115418482602086016114da565b91505092915050565b60008060006060848603121561156357611562610f12565b5b600084013567ffffffffffffffff81111561158157611580610f17565b5b61158d8682870161151c565b935050602084013567ffffffffffffffff8111156115ae576115ad610f17565b5b6115ba8682870161151c565b92505060406115cb86828701610f33565b9150509250925092565b7f4e487b7100000000000000000000000000000000000000000000000000000000600052602260045260246000fd5b6000600282049050600182168061161c57607f821691505b60208210810361162f5761162e6115d5565b5b50919050565b7f496e76616c69642063616d706169676e20494400000000000000000000000000600082015250565b600061166b601383610f80565b915061167682611635565b602082019050919050565b6000602082019050818103600083015261169a8161165e565b9050919050565b7f4f6e6c792063616d706169676e206f776e65722063616e2063616c6c2074686960008201527f732066756e6374696f6e00000000000000000000000000000000000000000000602082015250565b60006116fd602a83610f80565b9150611708826116a1565b604082019050919050565b6000602082019050818103600083015261172c816116f0565b9050919050565b7f43616d706169676e20697320616c726561647920636c6f736564000000000000600082015250565b6000611769601a83610f80565b915061177482611733565b602082019050919050565b600060208201905081810360008301526117988161175c565b9050919050565b60006060820190506117b46000830186610ede565b6117c16020830185610ede565b6117ce6040830184611052565b949350505050565b7f4e487b7100000000000000000000000000000000000000000000000000000000600052601160045260246000fd5b600061181082610ed4565b91507fffffffffffffffffffffffffffffffffffffffffffffffffffffffffffffffff8203611842576118416117d6565b5b600182019050919050565b7f4e487b7100000000000000000000000000000000000000000000000000000000600052603260045260246000fd5b7f43616d706169676e206973206e6f742061637469766500000000000000000000600082015250565b60006118b2601683610f80565b91506118bd8261187c565b602082019050919050565b600060208201905081810360008301526118e1816118a5565b9050919050565b7f446f6e6174696f6e206d7573742062652067726561746572207468616e207a6560008201527f726f000000000000000000000000000000000000000000000000000000000000602082015250565b6000611944602283610f80565b915061194f826118e8565b604082019050919050565b6000602082019050818103600083015261197381611937565b9050919050565b600061198582610ed4565b915061199083610ed4565b92508282019050808211156119a8576119a76117d6565b5b92915050565b7f476f616c206d7573742062652067726561746572207468616e207a65726f0000600082015250565b60006119e4601e83610f80565b91506119ef826119ae565b602082019050919050565b60006020820190508181036000830152611a13816119d7565b9050919050565b60008190508160005260206000209050919050565b60006020601f8301049050919050565b600082821b905092915050565b600060088302611a7c7fffffffffffffffffffffffffffffffffffffffffffffffffffffffffffffffff82611a3f565b611a868683611a3f565b95508019841693508086168417925050509392505050565b6000819050919050565b6000611ac3611abe611ab984610ed4565b611a9e565b610ed4565b9050919050565b6000819050919050565b611add83611aa8565b611af1611ae982611aca565b848454611a4c565b825550505050565b600090565b611b06611af9565b611b11818484611ad4565b505050565b5b81811015611b3557611b2a600082611afe565b600181019050611b17565b5050565b601f821115611b7a57611b4b81611a1a565b611b5484611a2f565b81016020851015611b63578190505b611b77611b6f85611a2f565b830182611b16565b50505b505050565b600082821c905092915050565b6000611b9d60001984600802611b7f565b1980831691505092915050565b6000611bb68383611b8c565b9150826002028217905092915050565b611bcf82610f75565b67ffffffffffffffff811115611be857611be761141f565b5b611bf28254611604565b611bfd828285611b39565b600060209050601f831160018114611c305760008415611c1e578287015190505b611c288582611baa565b865550611c90565b601f198416611c3e86611a1a565b60005b82811015611c6657848901518255600182019150602085019450602081019050611c41565b86831015611c835784890151611c7f601f891682611b8c565b8355505b6001600288020188555050505b505050505050565b6000608082019050611cad6000830187610ede565b8181036020830152611cbf8186610fcc565b9050611cce6040830185610ede565b611cdb6060830184611122565b9594505050505056fea264697066735822122048b47bd27b0875334a70f327fb860937487d7aba709a73642871c606acd0884b64736f6c634300081c0033",
  "linkReferences": {},
  "deployedLinkReferences": {}
}